{
  "transactions": [
    {
      "hash": "0xbe473abe3f8902e932ae9badd289be576bb63a24ee67736c32a81e62c5a5bf27",
      "transactionType": "CALL",
      "contractName": null,
      "contractAddress": "0x779877a7b0d9e8603169ddbd7836e478b4624789",
      "function": "transferAndCall(address,uint256,bytes)",
      "arguments": [
        "0x9DdfaCa8183c41ad55329BdeeD9F6A8d53168B1B",
        "3000000000000000000",
        "0xd8a6f0c7088d09e3b31810629ad5901a355d78ed80dc700a15add0a9c124ded8"
      ],
      "transaction": {
        "from": "0x708b00980e2659d40c695f3a9f93432b4315f822",
        "to": "0x779877a7b0d9e8603169ddbd7836e478b4624789",
        "gas": "0x1c1ff",
        "value": "0x0",
        "input": "0x4000aea00000000000000000000000009ddfaca8183c41ad55329bdeed9f6a8d53168b1b00000000000000000000000000000000000000000000000029a2241af62c000000000000000000000000000000000000000000000000000000000000000000600000000000000000000000000000000000000000000000000000000000000020d8a6f0c7088d09e3b31810629ad5901a355d78ed80dc700a15add0a9c124ded8",
        "nonce": "0x15",
        "chainId": "0xaa36a7"
      },
      "additionalContracts": [],
      "isFixedGasLimit": false
    }
  ],
  "receipts": [
    {
      "status": "0x1",
      "cumulativeGasUsed": "0x125a9c8",
      "logs": [
        {
          "address": "0x779877a7b0d9e8603169ddbd7836e478b4624789",
          "topics": [
            "0xddf252ad1be2c89b69c2b068fc378daa952ba7f163c4a11628f55a4df523b3ef",
            "0x000000000000000000000000708b00980e2659d40c695f3a9f93432b4315f822",
            "0x0000000000000000000000009ddfaca8183c41ad55329bdeed9f6a8d53168b1b"
          ],
          "data": "0x00000000000000000000000000000000000000000000000029a2241af62c0000",
          "blockHash": "0x65e7ee66ec563f359b22c00a3ffbbe1e6bd172ea914325ee3a08402143d2df72",
          "blockNumber": "0x9f2995",
          "blockTimestamp": "0x69b24538",
          "transactionHash": "0xbe473abe3f8902e932ae9badd289be576bb63a24ee67736c32a81e62c5a5bf27",
          "transactionIndex": "0x7a",
          "logIndex": "0x12d",
          "removed": false
        },
        {
          "address": "0x779877a7b0d9e8603169ddbd7836e478b4624789",
          "topics": [
            "0xe19260aff97b920c7df27010903aeb9c8d2be5d310a2c67824cf3f15396e4c16",
            "0x000000000000000000000000708b00980e2659d40c695f3a9f93432b4315f822",
            "0x0000000000000000000000009ddfaca8183c41ad55329bdeed9f6a8d53168b1b"
          ],
          "data": "0x00000000000000000000000000000000000000000000000029a2241af62c000000000000000000000000000000000000000000000000000000000000000000400000000000000000000000000000000000000000000000000000000000000020d8a6f0c7088d09e3b31810629ad5901a355d78ed80dc700a15add0a9c124ded8",
          "blockHash": "0x65e7ee66ec563f359b22c00a3ffbbe1e6bd172ea914325ee3a08402143d2df72",
          "blockNumber": "0x9f2995",
          "blockTimestamp": "0x69b24538",
          "transactionHash": "0xbe473abe3f8902e932ae9badd289be576bb63a24ee67736c32a81e62c5a5bf27",
          "transactionIndex": "0x7a",
          "logIndex": "0x12e",
          "removed": false
        },
        {
          "address": "0x9ddfaca8183c41ad55329bdeed9f6a8d53168b1b",
          "topics": [
            "0x1ced9348ff549fceab2ac57cd3a9de38edaaab274b725ee82c23e8fc8c4eec7a",
            "0xd8a6f0c7088d09e3b31810629ad5901a355d78ed80dc700a15add0a9c124ded8"
          ],
          "data": "0x000000000000000000000000000000000000000000000000000000000000000000000000000000000000000000000000000000000000000029a2241af62c0000",
          "blockHash": "0x65e7ee66ec563f359b22c00a3ffbbe1e6bd172ea914325ee3a08402143d2df72",
          "blockNumber": "0x9f2995",
          "blockTimestamp": "0x69b24538",
          "transactionHash": "0xbe473abe3f8902e932ae9badd289be576bb63a24ee67736c32a81e62c5a5bf27",
          "transactionIndex": "0x7a",
          "logIndex": "0x12f",
          "removed": false
        }
      ],
      "logsBloom": "0x00000004000000000000000000000000000004000020000000000000020000000004000000000000000000000000000000000000000000000000000000000000000000000000000000000008000000000000000000000000000020000020000008000000000000000000000000000200200000000000000000000010000040000000000000000000000000010000800000000020000000000000000000000000000000000000000000000000010000000000000000000000000004000000000000000002000000000000000000000000000000000000000100000000000000000010000000000000800000000000000000000000000000000000004000040000",
      "type": "0x2",
      "transactionHash": "0xbe473abe3f8902e932ae9badd289be576bb63a24ee67736c32a81e62c5a5bf27",
      "transactionIndex": "0x7a",
      "blockHash": "0x65e7ee66ec563f359b22c00a3ffbbe1e6bd172ea914325ee3a08402143d2df72",
      "blockNumber": "0x9f2995",
      "gasUsed": "0x133b1",
      "effectiveGasPrice": "0xf424a",
      "from": "0x708b00980e2659d40c695f3a9f93432b4315f822",
      "to": "0x779877a7b0d9e8603169ddbd7836e478b4624789",
      "contractAddress": null
    }
  ],
  "libraries": [],
  "pending": [],
  "returns": {},
  "timestamp": 1773290808563,
  "chain": 11155111,
  "commit": "63ca960"
}